:100000000C9481000C94A9000C94A9000C94A900F4
:100010000C94A9000C94A9000C94A9000C94A900BC
:100020000C94A9000C94A9000C94A9000C94A900AC
:100030000C94A9000C94A9000C94A9000C94A9009C
:100040000C9457090C94A9000C94C7090C94A109AD
:100050000C94A9000C94A9000C94A9000C94A9007C
:100060000C94A9000C94A9004E414E494E49545994
:10007000494E46CDCCCC3D0AD7233C17B7D1387773
:10008000CC2B329595E6241FB14F0A000020410089
:1000900000C84200401C4620BCBE4CCA1B0E5AAED3
:1000A000C59D7400000000240027002A0000000005
:1000B00000250028002B0000000000230026002956
:1000C0000004040404040404040202020202020301
:1000D000030303030301020408102040800102040B
:1000E000081020010204081020000000080002018E
:1000F0000000030407000000000000000000F909F0
:10010000380C11241FBECFEFD8E0DEBFCDBF14E006
:10011000A0E0B1E0EEE9F6E202C005900D92A03356
:10012000B107D9F724E0A0E3B4E001C01D92A13FDC
:10013000B207E1F710E0C0E8D0E004C02197FE016B
:100140000E943211CF37D107C9F70E946D0A0C9473
:1001500042130C940000833081F028F4813099F030
:100160008230A9F008958730A9F08830C9F0843032
:10017000B1F4809180008F7D03C0809180008F77E3
:1001800080938000089584B58F7784BD089584B5E9
:100190008F7DFBCF8091B0008F778093B000089562
:1001A0008091B0008F7DF9CFCF93DF93282F30E07F
:1001B000F901E751FF4F8491F901EB52FF4FD491C0
:1001C000F901EF53FF4FC491CC23A1F081110E949C
:1001D000AB00EC2FF0E0EE0FFF1FE954FF4FA591AD
:1001E000B491EC91ED2381E090E009F480E0DF919F
:1001F000CF91089580E090E0FACF1F93CF93DF93E3
:10020000282F30E0F901E751FF4F8491F901EB52BB
:10021000FF4FD491F901EF53FF4FC491CC23A9F0C4
:10022000162F81110E94AB00EC2FF0E0EE0FFF1FA4
:10023000E355FF4FA591B4918FB7F894EC9111114C
:1002400008C0D095DE23DC938FBFDF91CF911F9143
:100250000895DE2BF8CFCF93DF9390E0FC01EB52B3
:10026000FF4F24918F539F4FFC0184918823D1F03D
:1002700090E0880F991FFC01ED55FF4FA591B491B7
:10028000FC01E355FF4FC591D491623071F49FB7E3
:10029000F8943C91822F809583238C93E8812E2BB8
:1002A00028839FBFDF91CF9108958FB7F894EC9189
:1002B0002E2B2C938FBFF6CF1F93CF93DF93182F46
:1002C000EB0161E00E942B01209739F460E0812F5F
:1002D000DF91CF911F910C94FD00CF3FD10511F418
:1002E00061E0F5CFE12FF0E0E751FF4FE491E3301B
:1002F00031F140F4E130B1F0E230E1F0C038D10545
:100300007CF7E4CFE73029F1E83059F1E430B1F778
:1003100080918000806280938000D0938B00C09396
:100320008A0004C084B5806884BDC7BDDF91CF91C9
:100330001F91089584B5806284BDC8BDF7CF8091B8
:100340008000806880938000D0938900C0938800EB
:10035000EDCF8091B00080688093B000C093B3006F
:10036000E5CF8091B00080628093B000C093B4006C
:10037000DDCF8E50806480937C0080917A00806411
:1003800080937A0080917A0086FDFCCF809178007E
:100390009091790008953FB7F8948091420490912C
:1003A0004304A0914404B091450426B5A89B05C020
:1003B0002F3F19F00196A11DB11D3FBFBA2FA92FE4
:1003C000982F8827BC01CD01620F711D811D911DE1
:1003D00042E0660F771F881F991F4A95D1F708954D
:1003E0008F929F92AF92BF92CF92DF92EF92FF9245
:1003F0004B015C010E94CB016B017C010E94CB018F
:100400006C197D098E099F09683E7340810591052D
:10041000A8F321E0821A9108A108B10888EEC80E5D
:1004200083E0D81EE11CF11C81149104A104B104E5
:1004300029F7FF90EF90DF90CF90BF90AF909F9003
:100440008F900895AF92BF92CF92DF92EF92FF927A
:100450000F931F93CF93DF936C017B018B01040FEC
:10046000151FEB015E01AE18BF08C017D10759F088
:100470006991D601ED91FC910190F081E02DC601CA
:100480000995892B79F7C501DF91CF911F910F91C4
:10049000FF90EF90DF90CF90BF90AF900895FC0158
:1004A000538D448D252F30E0842F90E0821B930BD9
:1004B000541710F0CF96089501970895FC01918D7F
:1004C000828D981761F0A28DAE0FBF2FB11D5D9682
:1004D0008C91928D9F5F9F73928F90E008958FEF24
:1004E0009FEF0895FC01918D828D981731F0828DD8
:1004F000E80FF11D858D90E008958FEF9FEF08952F
:10050000FC01918D228D892F90E0805C9F4F821B92
:1005100091098F739927089586E494E00E948002E0
:1005200021E0892B09F420E0822F0895FC01A48D9D
:10053000A80FB92FB11DA35ABF4F2C91848D90E005
:1005400001968F739927848FA689B7892C93A089E8
:10055000B1898C91837080648C93938D848D981372
:1005600006C00288F389E02D80818F7D8083089505
:10057000EF92FF920F931F93CF93DF93EC0181E0F3
:10058000888F9B8D8C8D98131AC0E889F98980819A
:1005900085FF15C09FB7F894EE89FF896083E889CD
:1005A000F98980818370806480839FBF81E090E0BF
:1005B000DF91CF911F910F91FF90EF900895F62E4C
:1005C0000B8D10E00F5F1F4F0F731127E02E8C8DE6
:1005D0008E110CC00FB607FCFACFE889F98980812B
:1005E00085FFF5CFCE010E949602F1CFEB8DEC0F87
:1005F000FD2FF11DE35AFF4FF0829FB7F8940B8F48
:10060000EA89FB8980818062CFCFCF93DF93EC01B1
:10061000888D8823B9F0AA89BB89E889F9898C91EA
:1006200085FD03C0808186FD0DC00FB607FCF7CFA6
:100630008C9185FFF2CF808185FFEDCFCE010E94A6
:100640009602E9CFDF91CF91089560E089E00E94A2
:10065000FD0060E08BE00E94FD0070E060E086E05D
:100660000C945C01009769F460E087E00E94FD0053
:1006700060E088E00E94FD0070E060E085E00C949E
:100680005C01019711F40C9425030895CF93C62FB4
:10069000009781F487E00E94FD0061E06C2788E00C
:1006A0000E94FD00609100017091010185E0CF91F1
:1006B0000C945C01019771F489E00E94FD0061E0F7
:1006C0006C278BE00E94FD00609102017091030194
:1006D00086E0EDCFCF910895FC0101900020E9F76D
:1006E0003197AF01481B590BBC0186E494E00C9490
:1006F00022028F929F92AF92BF920F931F93CF933C
:10070000DF93CDB7DEB7A1970FB6F894DEBF0FBE6B
:10071000CDBF19A2423008F44AE08E010F5D1F4F91
:10072000842E912CB12CA12CA50194010E94E20FE2
:10073000E62FB901CA01EA30F4F4E05DD801EE9386
:100740008D01232B242B252B79F790E080E0109747
:1007500019F0CD010E946C03A1960FB6F894DEBF8C
:100760000FBECDBFDF91CF911F910F91BF90AF9082
:100770009F908F900895E95CE1CF0C946C03CF9328
:10078000DF930E946C03EC0186E291E00E946C030F
:100790008C0F9D1FDF91CF910895CF92DF92EF9242
:1007A000FF92CF93DF936C01990FEE08FF08F7FEDD
:1007B00019C06DE286E494E00E94B802EC0166275D
:1007C0007727CB016C197D098E099F094AE00E94A9
:1007D00079038C0F9D1FDF91CF91FF90EF90DF90F9
:1007E000CF9008954AE0C701B601DF91CF91FF9005
:1007F000EF90DF90CF900C947903CF93DF930E941A
:10080000CD03EC0186E291E00E946C038C0F9D1FEA
:10081000DF91CF9108954F925F926F927F928F9266
:100820009F92AF92BF92CF92DF92EF92FF920F937F
:100830001F93CF936B017C01742EAC019B010E942E
:100840002611882399F089E291E0CF911F910F91B1
:10085000FF90EF90DF90CF90BF90AF909F908F90E0
:100860007F906F905F904F900C946C0346015701FE
:10087000E894B7F82FEF3FEF4FE75FE7C501B4010A
:100880000E94261181110DC02FEF3FEF4FE75FE768
:10089000C501B4010E94440E18161CF48DE291E0CB
:1008A000D4CF2FEF3FEF4FE75FE4C701B6010E94BF
:1008B000211118161CF481E391E0C7CF2FEF3FEF11
:1008C0004FE75FECC701B6010E94440E87FDF3CFEE
:1008D00020E030E0A901C701B6010E94440E10E0FB
:1008E00000E087FF0AC06DE286E494E00E94B8024F
:1008F0008C01F7FAF094F7F8F094C0E060E070E053
:1009000080E09FE37C1641F020E030E040E251E4DB
:100910000E948010CF5FF6CFA70196010E941410AD
:100920002B013C010E94F2104B015C014AE00E9445
:1009300079037C01E00EF11ECC23C1F1C501B401A5
:100940000E94490E9B01AC01C301B2010E94131029
:100950004B015C016EE286E494E00E94B802E80E6E
:10096000F91EC15018F120E030E040E251E4C50129
:10097000B4010E94AA0E2B013C010E94F2104B010F
:10098000B12CA12C4AE0C501B4010E947903E80E04
:10099000F91EC501B4010E94490E9B01AC01C301BF
:1009A000B2010E9413104B015C01DBCFC701CF9154
:1009B0001F910F91FF90EF90DF90CF90BF90AF907D
:1009C0009F908F907F906F905F904F900895CF93FE
:1009D000DF93EC018091E3049091E404009759F0D7
:1009E0002091E5043091E6042C173D0720F081E0CA
:1009F000DF91CF910895BE016F5F7F4F0E945D121E
:100A0000009789F09093E4048093E304D093E60484
:100A1000C093E5042091E7043091E804232B39F7D3
:100A2000FC011082E4CF80E0E3CFFF920F931F938D
:100A3000CF93DF9300D0CDB7DEB7FF24F39486E4E5
:100A400094E00E948002892B51F186E494E00E9498
:100A50005E028A3019F4F0923004F1CF89831A8251
:100A60000091E7041091E8040F5F1F4FC8010E9436
:100A7000E704882321F32091E3043091E40480917A
:100A8000E7049091E804BE016F5F7F4F820F931FD0
:100A90000E942C131093E8040093E704D0CF0F902A
:100AA0000F90DF91CF911F910F91FF9008950E94B9
:100AB0008C0281110C9415050895FF920F931F93DA
:100AC000CF93DF93EC018B01FB01F0800E946B0F51
:100AD000F81621F06F2DCE010E94730FF801F180FE
:100AE0002196CE010E946B0FF81621F06F2DCE01DA
:100AF0000E94730FC801DF91CF911F910F91FF905A
:100B00000895AF92BF92CF92DF92EF92FF920F9330
:100B10001F93CF93DF93CDB7DEB7C059D1400FB647
:100B2000F894DEBF0FBECDBFC090E304D090E404C4
:100B3000C114D10449F00091E7041091E804760152
:100B40000115110509F083C085E391E00E94BD0302
:100B50000091E7041091E8040115110509F0B3C0F4
:100B60001982CE0101960E94BF030091E704109103
:100B7000E8040115110509F0BCC0C753DF4F188206
:100B8000C95CD0406DE371E0CE0187539F4F0E9456
:100B90008A0C8C01009751F16FE371E00E942313DE
:100BA000892B09F0DCC06DE371E090E080E00E94E9
:100BB0008A0C0E94450C8C016DE371E090E080E0AE
:100BC0000E948A0C7C0169E471E00E94231361E0B9
:100BD000892B49F06DE471E0C7010E942313892B32
:100BE00009F09EC060E0C8010E94460390E080E0EA
:100BF0000E94E7042091E3043091E404811139C399
:100C00002115310519F0C9010E94D4111092E40494
:100C10001092E3041092E8041092E7041092E604A4
:100C20001092E50410923004C057DE4F0FB6F894CE
:100C3000DEBF0FBECDBFDF91CF911F910F91FF900F
:100C4000EF90DF90CF90BF90AF900895750157015E
:100C50008FEFA81AB80AF7018081082E000C990BB3
:100C60000E94230E892B91F7015011090C0D1D1DB7
:100C7000F8018081082E000C990B0E94230E892B0D
:100C800031F00E151F0518F001501109F1CFA80120
:100C90004F5F5F4F4E195F095093E8044093E7049C
:100CA000CE14DF0420F4B701C6010E941A13E091AC
:100CB000E304F091E4048091E7049091E804E80FE4
:100CC000F91F108241CF073C110510F007EC10E02E
:100CD0006091E3047091E404A801CE0101960E94A2
:100CE0003313E1E0F0E0EC0FFD1FE00FF11F108285
:100CF00038CF073C110510F007EC10E06091E304D9
:100D00007091E404A801CE0187539F4F0E943313D2
:100D1000E9ECF0E0EC0FFD1FE00FF11F108232CF85
:100D200061E571E0C7010E942313892B21F4C801FA
:100D30000E9432035BCF66E571E0C7010E94231376
:100D4000892B09F053CF8BE591E00E94BD03C801C8
:100D50000E94CD0382E791E00E94BF0347CF68E87D
:100D600071E0C8010E942313892BD1F56DE371E076
:100D700090E080E00E948A0C8C016DE371E090E0CD
:100D800080E00E948A0C0E94450C2FEF30E0DC01CD
:100D90000E942B1124E630E040E050E00E94810FD9
:100DA000690162E971E0C8010E942313892B49F4AB
:100DB000D0920101C0920001D0920301C0920201C1
:100DC00015CFC8010E94450C8230910508F00ECF66
:100DD000880F991FFC01E050FF4FD182C08206CFDF
:100DE00064E971E0C8010E942313892BD9F46DE3F3
:100DF00071E090E080E00E948A0C0E94450C182F60
:100E00006DE371E090E080E00E948A0C0E94450C46
:100E1000082F61E0812F0E942B01602F812F0E94FB
:100E2000FD00E4CE6FE971E0C8010E942313892B15
:100E300099F482E194E00E94BD03809106019091B3
:100E400007010E94CD038EED91E00E94BD038091C9
:100E500004019091050136C067EA71E0C8010E9463
:100E60002313892B09F04BC06DE371E090E080E023
:100E70000E948A0C8C016DE371E090E080E00E949A
:100E80008A0C01151105C1F10097B1F10E94450CC2
:100E90007C016FEA71E0C8010E942313892BA9F439
:100EA000F0920701E092060166E071E090E080E0D8
:100EB0000E945D0589EB91E00E94BD0380910601CF
:100EC000909107010E94FD0391CE6CEC71E0C80186
:100ED0000E942313892B69F4F0920501E09204012A
:100EE00064E071E084E090E00E945D0587ED91E0B0
:100EF000ACCF8BEE91E030CF89E092E02DCF66E26F
:100F000072E0C8010E942313892B09F045C0E090CC
:100F10000001F0900101009102011091030170E0C5
:100F200060E085E00E945C0170E060E086E00E9485
:100F30005C0161E087E00E94FD0060E088E00E94C3
:100F4000FD0061E089E00E94FD0060E08BE00E940E
:100F5000FD0068EC70E080E090E00E94F00160E04D
:100F600087E00E94FD0060E088E00E94FD0060E0F4
:100F700089E00E94FD0060E08BE00E94FD008FE2AE
:100F800092E00E94BF03B70185E00E945C01B801B6
:100F900086E00E945C012ACE6BE372E0C8010E94E9
:100FA0002313892B09F043C06DE371E090E080E0EA
:100FB0000E948A0C0E94450C8C016DE371E090E068
:100FC00080E00E948A0C5C016DE371E090E080E0BB
:100FD0000E948A0C0E94630C6B017C0169E471E041
:100FE000C5010E9423131093090100930801C092C8
:100FF0003104D0923204E0923304F09234042FB7DB
:10100000F89440913E0450913F04609140047091E7
:1010100041042FBF40933504509336046093370446
:101020007093380461E0892B09F4DDCDDBCD65E4F4
:1010300072E0C8010E942313892B09F043C06DE3BD
:1010400071E090E080E00E948A0C0E94450C8C01C7
:101050006DE371E090E080E00E948A0C0E94410CF8
:101060006B017C018FE492E00E94BD03C8010E94E5
:10107000CD0389E692E00E94BD0342E0C701B601BC
:101080000E940B048EE692E00E94BF0361E08CE0B8
:101090000E94FD0060E08DE00E94FD0061E0C8015B
:1010A0000E9446036AEF70E080E090E00E94F00149
:1010B000C8010E94320360E08CE00E94FD0060E005
:1010C0008DE0ADCE61E772E0C8010E942313892B49
:1010D00031F56DE371E090E080E00E948A0C0E949F
:1010E000450C8C016DE371E090E080E00E948A0C79
:1010F0000E94410C6B017C0186E792E00E94BD03D7
:10110000C8010E94CD0389E692E00E94BD0342E03F
:10111000C701B6010E940B048BE892E0B5CF65E9E8
:1011200072E0C8010E942313892BE9F56DE371E099
:1011300090E080E00E948A0C8C016FE972E00E94CE
:101140002313892B69F486EA92E00E94BF0360EDC5
:1011500077E080E090E00E94F00189EC92E0FCCD25
:101160006AEE72E0C8010E942313892B09F03ECD7C
:1011700082EF92E00E94BF0386E193E00E94BF03EA
:1011800068EB7BE080E090E00E94F0018BE393E06D
:101190000E94BF0368EB7BE080E090E00E94F001DA
:1011A0008DE693E0D9CD6FE873E0C8010E94231368
:1011B000892BA9F58EE00E94B9018C018FE00E9475
:1011C000B9017C0189E993E00E94BD03C8010E9436
:1011D000CD0385EB93E00E94BD03C7010E94FD0390
:1011E0000E191F09980117FF04C022273327201B5F
:1011F000310B233331050CF4F9CC61E010161106E4
:101200000CF060E090E080E00E94460362E370E052
:1012100080E090E00E94F00190E080E089CD69EBF1
:1012200073E0C8010E942313892B01F56DE371E07F
:1012300090E080E00E948A0C0E94450C8C0184ECB6
:1012400093E00E94BD03C8010E94FD0361E0C80154
:101250000E9446036AEF70E080E090E00E94F00197
:10126000C8010E94320388ED93E076CD8CEE93E0C6
:1012700073CD1092E8041092E70468E271E0C901AE
:101280000E942C13CFCC0F931F93CF93DF938C012D
:10129000EB010E946B0F8883C80101960E946B0FBF
:1012A0008983CE01DF91CF911F910F9108951F92F5
:1012B0000F920FB60F9211242F933F938F939F930A
:1012C000AF93BF9380913E0490913F04A09140045E
:1012D000B091410430913D0423E0230F2D3758F5A0
:1012E0000196A11DB11D20933D0480933E0490936F
:1012F0003F04A0934004B093410480914204909134
:101300004304A0914404B09145040196A11DB11D70
:101310008093420490934304A0934404B093450403
:10132000BF91AF919F918F913F912F910F900FBEE1
:101330000F901F90189526E8230F0296A11DB11D4E
:10134000D2CF1F920F920FB60F9211242F933F937B
:101350004F935F936F937F938F939F93AF93BF93BD
:10136000EF93FF9386E494E00E949602FF91EF9141
:10137000BF91AF919F918F917F916F915F914F91AD
:101380003F912F910F900FBE0F901F9018951F92B5
:101390000F920FB60F9211242F938F939F93EF9379
:1013A000FF93E0915604F09157048081E0915C0432
:1013B000F0915D0482FD1BC0908180915F048F5F7E
:1013C0008F7320916004821741F0E0915F04F0E098
:1013D000EA5BFB4F958F80935F04FF91EF919F91A4
:1013E0008F912F910F900FBE0F901F9018958081B5
:1013F000F4CF109249041092480488EE93E0A0E0E4
:10140000B0E080934A0490934B04A0934C04B093B3
:101410004D0488E191E0909347048093460485EC65
:1014200090E0909353048093520484EC90E0909366
:1014300055048093540480EC90E09093570480937B
:10144000560481EC90E0909359048093580482EC08
:1014500090E090935B0480935A0486EC90E0909324
:101460005D0480935C0410925F04109260041092FB
:101470006104109262041092E4041092E30410924A
:10148000E6041092E5041092E8041092E70490E05C
:1014900080E00E94E7042091E3043091E40481118C
:1014A00013C02115310519F0C9010E94D411109201
:1014B000E4041092E3041092E8041092E7041092FE
:1014C000E6041092E50408951092E8041092E704EF
:1014D00068E271E0C9010C942C13CF93DF9300D024
:1014E000CDB7DEB7789484B5826084BD84B5816061
:1014F00084BD85B5826085BD85B5816085BD8091DF
:101500006E00816080936E00109281008091810056
:10151000826080938100809181008160809381004E
:10152000809180008160809380008091B100846010
:101530008093B1008091B00081608093B000809171
:101540007A00846080937A0080917A008260809330
:101550007A0080917A00816080937A0080917A008D
:10156000806880937A001092C100E0915604F09157
:10157000570482E08083E0915204F091530410827A
:10158000E0915404F091550480E1808310925E0450
:10159000E0915A04F0915B0486E08083E091580466
:1015A000F0915904808180618083E0915804F0912A
:1015B0005904808188608083E0915804F091590437
:1015C000808180688083E0915804F0915904808183
:1015D0008F7D808366E071E090E080E00E944309A7
:1015E00064E071E084E090E00E944309809106018C
:1015F000909107011816190634F082E390E0909359
:10160000070180930601809104019091050118164D
:10161000190634F08AE090E090930501809304016C
:1016200084E690E00E94E70461E085E00E942B01DF
:1016300061E087E00E942B0161E088E00E942B01BD
:1016400061E086E00E942B0161E089E00E942B01AD
:1016500061E08BE00E942B0162E082E00E942B019E
:1016600062E083E00E942B0161E08CE00E942B018C
:1016700061E08DE00E942B0190E080E00E94320347
:101680000E9425038CEF93E00E94BD038091060128
:10169000909107010E94CD038EED91E00E94BD0361
:1016A00080910401909105010E94FD03DD24D394F3
:1016B000EE24EA94FE2C86E494E00E948002892BBA
:1016C00051F186E494E00E945E028A3019F4D092CF
:1016D0003004F1CF89831A820091E7041091E80465
:1016E0000F5F1F4FC8010E94E704882321F3209158
:1016F000E3043091E4048091E7049091E804BE0192
:101700006F5F7F4F820F931F0E942C131093E8048A
:101710000093E704D0CF8091300481110E948105AD
:101720008091080190910901019671F12FB7F89409
:1017300080913E0490913F04A0914004B0914104F7
:101740002FBF409135045091360460913704709159
:101750003804841B950BA60BB70B409131045091B4
:101760003204609133047091340484179507A607FE
:10177000B70750F080910801909109010E9432034F
:10178000F0920901E09208012FB7F89480913E048D
:1017900090913F04A0914004B09141042FBF40912B
:1017A000390450913A0460913B0470913C04841BCD
:1017B000950BA60BB70B8A3F9105A105B10508F45F
:1017C0004FC02FB7F89480913E0490913F04A091B0
:1017D0004004B09141042FBF8093390490933A04A0
:1017E000A0933B04B0933C0482E00E94D4008C019F
:1017F00080910C0190910D010817190799F0109331
:101800000D0100930C0181E294E00E94BD0382E08F
:1018100090E00E94CD038DE391E00E94BD03C801DA
:101820000E94FD0383E00E94D4008C0180910A0194
:1018300090910B010817190799F010930B01009371
:101840000A0181E294E00E94BD0383E090E00E94DF
:10185000CD038DE391E00E94BD03C8010E94FD030A
:101860000E948C02882309F426CF0E94150523CFFD
:101870008091E3049091E404009711F00C94D4114A
:101880000895662777270C94D30CFC0188279927A5
:10189000E89421912032E9F3293010F02E30C8F37A
:1018A0002B3241F02D3239F4689404C00E94CB0CE5
:1018B000820F911D219120532A30C0F31EF4909580
:1018C00081959F4F08951F93FC0199278827BC019C
:1018D000E89411911032E9F3193010F01E30C8F37A
:1018E0001B3251F01D3249F4689406C00E94B60CB8
:1018F000610F711D811D911D119110531A30B0F3AC
:101900003EF490958095709561957F4F8F4F9F4FD6
:101910001F91089549EE54E00E948F0C0895FA013A
:10192000A191B081009719F41097E1F0CD01DC018D
:10193000CD010D90002011F4C00113C0FB012191D5
:10194000222319F02015D9F7F3CFFB01219120159F
:1019500019F41E92119606C02223C1F70D900020A3
:10196000A1F7D001FA01A193B0830895592F482F10
:10197000372F262F660F771F881F991F660F771F37
:10198000881F991F620F731F841F951F660F771F93
:10199000881F991F08957AE0979F902D879F802D2B
:1019A000910D11240895B0E0A0E0E9EDFCE00C9465
:1019B000B10F5C017B016115710519F0DB018D939D
:1019C0009C9385010F5F1F4FF501D0818D2F90E013
:1019D0000E94230E6C01892BB9F5DD32B9F50F5F3A
:1019E0001F4FD5011196DC91C1E05801F1E0AF1A0B
:1019F000B10843E050E060E770E0C5010E942C0EA2
:101A0000892B69F5680182E0C80ED11C45E050E0E1
:101A10006BE670E0C6010E942C0E892B21F4680150
:101A200097E0C90ED11CE114F10419F0D701CD9251
:101A3000DC9260E070E080E89FEFC111FFC060E0E1
:101A400070E080E89FE7FAC05801BBCFDB3229F491
:101A500085010E5F1F4FF501D181C0E0C6CF43E085
:101A600050E068E670E0C5010E942C0E892BE9F079
:101A7000F80110E000E020E030E0A9015F01B0EDE6
:101A80008B2E8D0E89E08815C8F19C2E689491F8F4
:101A90008C2F8870C2FF16C0811102C00F5F1F4FCC
:101AA0003196D501DC91C92DE9CFE114F10429F07B
:101AB0000E5F1F4FF7011183008360E070E080EC40
:101AC0009FE7BCC0882311F001501109A5E0B0E0E8
:101AD0000E94A00F9B01AC01220F331F441F551F12
:101AE000280D311D411D511D283999E93907490734
:101AF00099E15907A8F2C6609C2ED2CFAEEF8A12A8
:101B000006C0C3FD3CC09C2E689493F8C9CFDF7D0E
:101B1000D534A9F580818D3239F4C061DF01129688
:101B2000818162E070E006C0DF018B32C1F3119663
:101B300061E070E080535D01A61AB70A8A30F8F4BC
:101B4000E0E8CE16ECE0DE065CF4B601660F771F27
:101B5000660F771FC60ED71ECC0CDD1CC80ED11C1D
:101B60005D01FFEFAF1ABF0A8C9180538A30A8F154
:101B7000C4FF03C0D194C194D1080C0D1D1DC1FF39
:101B800009C0E114F10431F081E0A81AB108D701CD
:101B9000AD92BC92CA01B9010E94490EC370C33014
:101BA00009F490584B015C0120E030E0A9010E944B
:101BB000440E882309F440C0CFE9D0E017FF05C0E8
:101BC000119501951109C7E8D0E06E01B8E1CB1A73
:101BD000D10880E2E82EF12C0FC0D501B1CFFE0173
:101BE00025913591459154910E191F09C501B401F4
:101BF0000E94AA0E4B015C01D501C4010E151F0500
:101C000074F72497F594E794CC16DD06A9F78A2F8C
:101C1000880F8B2F881F8F3F49F020E030E0A9010B
:101C2000C501B4010E94440E811106C082E290E019
:101C30009093EC048093EB04C501B401CDB7DEB7FB
:101C4000ECE00C94CD0F91110C94170F803219F029
:101C500089508550C8F70895FB01DC014150504080
:101C600088F08D9181341CF08B350CF4805E659189
:101C700061341CF06B350CF4605E861B611171F3EE
:101C8000990B0895881BFCCF0E94860E08F481E012
:101C90000895E89409C097FB3EF49095809570955F
:101CA00061957F4F8F4F9F4F9923A9F0F92F96E9A8
:101CB000BB279395F695879577956795B795F1111D
:101CC000F8CFFAF4BB0F11F460FF1BC06F5F7F4FBA
:101CD0008F4F9F4F16C0882311F096E911C07723CC
:101CE00021F09EE8872F762F05C0662371F096E8D5
:101CF000862F70E060E02AF09A95660F771F881FA4
:101D0000DAF7880F9695879597F90895990F000847
:101D1000550FAA0BE0E8FEEF16161706E807F907BD
:101D2000C0F012161306E407F50798F0621B730B58
:101D3000840B950B39F40A2661F0232B242B252BD9
:101D400021F408950A2609F4A140A6958FEF811D7C
:101D5000811D08950E94BD0E0C94310F0E94230F27
:101D600038F00E942A0F20F0952311F00C941A0FDE
:101D70000C94200F11240C94650F0E94420F70F3F5
:101D8000959FC1F3950F50E0551F629FF001729F20
:101D9000BB27F00DB11D639FAA27F00DB11DAA1F2F
:101DA000649F6627B00DA11D661F829F2227B00D7C
:101DB000A11D621F739FB00DA11D621F839FA00D07
:101DC000611D221F749F3327A00D611D231F849F57
:101DD000600D211D822F762F6A2F11249F575040AE
:101DE0009AF0F1F088234AF0EE0FFF1FBB1F661F29
:101DF000771F881F91505040A9F79E3F510580F0F2
:101E00000C941A0F0C94650F5F3FE4F3983ED4F3E3
:101E1000869577956795B795F795E7959F5FC1F795
:101E2000FE2B880F911D9695879597F90895992710
:101E30008827089597F99F6780E870E060E008952B
:101E40009FEF80EC089500240A94161617061806D2
:101E50000906089500240A941216130614060506AE
:101E60000895092E0394000C11F4882352F0BB0F3F
:101E700040F4BF2B11F460FF04C06F5F7F4F8F4FA2
:101E80009F4F089557FD9058440F551F59F05F3FDD
:101E900071F04795880F97FB991F61F09F3F79F08C
:101EA00087950895121613061406551FF2CF46950E
:101EB000F1DF08C0161617061806991FF1CF869590
:101EC0007105610508940895E894BB276627772774
:101ED000CB0197F90895F999FECF92BD81BDF89A8B
:101EE000992780B50895262FF999FECF1FBA92BD84
:101EF00081BD20BD0FB6F894FA9AF99A0FBE0196EB
:101F00000895052E97FB1EF400940E94980F57FD2C
:101F100007D00E94E20F07FC03D04EF40C94980FF8
:101F200050954095309521953F4F4F4F5F4F089505
:101F300090958095709561957F4F8F4F9F4F089535
:101F40000E940410A59F900DB49F900DA49F800D3A
:101F5000911D112408952F923F924F925F926F929C
:101F60007F928F929F92AF92BF92CF92DF92EF9229
:101F7000FF920F931F93CF93DF93CDB7DEB7CA1BAA
:101F8000DB0B0FB6F894DEBF0FBECDBF09942A88D5
:101F9000398848885F846E847D848C849B84AA847D
:101FA000B984C884DF80EE80FD800C811B81AA810A
:101FB000B981CE0FD11D0FB6F894DEBF0FBECDBFD5
:101FC000ED010895A1E21A2EAA1BBB1BFD010DC055
:101FD000AA1FBB1FEE1FFF1FA217B307E407F507D9
:101FE00020F0A21BB30BE40BF50B661F771F881FB5
:101FF000991F1A9469F760957095809590959B014B
:10200000AC01BD01CF010895A29FB001B39FC001F3
:10201000A39F700D811D1124911DB29F700D811D14
:102020001124911D08955058BB27AA270E942B10F8
:102030000C94310F0E94230F38F00E942A0F20F0D9
:1020400039F49F3F19F426F40C94200F0EF4E09518
:10205000E7FB0C941A0FE92F0E94420F58F3BA17AE
:10206000620773078407950720F079F4A6F50C94AE
:10207000640F0EF4E0950B2EBA2FA02D0B01B901C1
:1020800090010C01CA01A0011124FF27591B99F0EE
:10209000593F50F4503E68F11A16F040A22F232FFA
:1020A000342F4427585FF3CF469537952795A7954A
:1020B000F0405395C9F77EF41F16BA0B620B730BF1
:1020C000840BBAF09150A1F0FF0FBB1F661F771F62
:1020D000881FC2F70EC0BA0F621F731F841F48F417
:1020E000879577956795B795F7959E3F08F0B0CFA0
:1020F0009395880F08F09927EE0F97958795089587
:102100000E9494100C94310F0E942A0F58F00E94E4
:10211000230F40F029F45F3F29F00C941A0F51115E
:102120000C94650F0C94200F0E94420F68F39923C2
:10213000B1F3552391F3951B550BBB27AA276217C3
:102140007307840738F09F5F5F4F220F331F441FD0
:10215000AA1FA9F335D00E2E3AF0E0E832D0915004
:102160005040E695001CCAF72BD0FE2F29D0660FF1
:10217000771F881FBB1F261737074807AB07B0E834
:1021800009F0BB0B802DBF01FF2793585F4F3AF03A
:102190009E3F510578F00C941A0F0C94650F5F3F29
:1021A000E4F3983ED4F3869577956795B795F795C0
:1021B0009F5FC9F7880F911D9695879597F90895A8
:1021C000E1E0660F771F881FBB1F62177307840744
:1021D000BA0720F0621B730B840BBA0BEE1F88F753
:1021E000E09508950E944A0F88F09F5798F0B92F04
:1021F0009927B751B0F0E1F0660F771F881F991F3C
:102200001AF0BA95C9F714C0B13091F00E94640F6A
:10221000B1E008950C94640F672F782F8827B85F7A
:1022200039F0B93FCCF3869577956795B395D9F793
:102230003EF490958095709561957F4F8F4F9F4F9D
:1022400008950E94860E08F48FEF08950E94860E6E
:10225000880B990B08950E940410B7FF0895821B04
:10226000930B0895EE0FFF1F0590F491E02D099454
:102270000F931F93CF93DF938230910510F482E088
:1022800090E0E091EF04F091F00430E020E0B0E065
:10229000A0E0309799F42115310509F44AC0281BB4
:1022A000390B24303105D8F58A819B816115710580
:1022B00089F1FB0193838283FE0111C0408151812A
:1022C0000281138148175907E0F04817590799F41C
:1022D000109761F012960C93129713961C933296F6
:1022E000CF01DF91CF911F910F9108950093EF04DB
:1022F0001093F004F4CF2115310551F04217530724
:1023000038F0A901DB019A01BD01DF01F801C1CF5D
:10231000EF01F9CF9093F0048093EF04CDCFFE014D
:10232000E20FF31F8193919322503109398328835F
:10233000D7CF2091ED043091EE04232B41F420916E
:102340001001309111013093EE042093ED0420919F
:102350000E0130910F012115310541F42DB73EB723
:102360004091120150911301241B350BE091ED04B3
:10237000F091EE04E217F307A0F42E1B3F0B281791
:10238000390778F0AC014E5F5F4F2417350748F0EE
:102390004E0F5F1F5093EE044093ED048193919391
:1023A0009FCFF0E0E0E09CCFCF93DF930097E9F080
:1023B000FC01329713821282A091EF04B091F004D5
:1023C000ED0130E020E01097A1F420813181820FEF
:1023D000931F2091ED043091EE042817390709F07E
:1023E00061C0F093EE04E093ED04DF91CF91089586
:1023F000EA01CE17DF07E8F54A815B819E014115AE
:102400005105B1F7E901FB83EA8349915991C40F62
:10241000D51FEC17FD0761F4808191810296840F2E
:10242000951FE90199838883828193819B838A83A5
:10243000F0E0E0E012968D919C9113970097B9F52A
:102440002D913C911197CD010296820F931F2091FF
:10245000ED043091EE042817390739F6309751F51D
:102460001092F0041092EF04B093EE04A093ED04E8
:10247000BCCFD383C28340815181840F951FC8177D
:10248000D90761F44E5F5F4F88819981480F591FCA
:10249000518340838A819B819383828321153105F7
:1024A00009F0B0CFF093F004E093EF049ECFFD016C
:1024B000DC01C0CF13821282D7CFB0E0A0E0E3E608
:1024C000F2E10C94AD0F8C01009751F4CB010E9406
:1024D00038118C01C801CDB7DEB7E0E10C94C90F0B
:1024E000FC01E60FF71F9C0122503109E217F307A8
:1024F00008F49DC0D901CD91DC911197C617D7077B
:1025000098F0C530D10530F3CE01049786179707B0
:1025100008F3C61BD70B2297C193D1936D937C937D
:10252000CF010E94D411D6CF5B01AC1ABD0A4C0179
:102530008C0E9D1EA091EF04B091F004512C412C03
:10254000F12CE12C109731F58091ED049091EE047F
:102550008815990509F05CC04616570608F058C062
:1025600080910E0190910F01009741F48DB79EB7B5
:102570004091120150911301841B950BE817F90744
:1025800008F055C0F093EE04E093ED04F901718377
:102590006083A0CF8D919C91119712966C901297A9
:1025A00013967C901397A815B90559F56C0142E074
:1025B000C40ED11CCA14DB0420F1AC014A195B091A
:1025C000DA011296159780F06282738251834083FC
:1025D000D9016D937C93E114F10471F0D701139646
:1025E000FC93EE93129776CF22968C0F9D1FF901E4
:1025F00091838083F301EFCFF093F004E093EF0435
:1026000069CF4816590608F42C017D01D3019ACFF1
:10261000CB010E9438117C01009749F0AE01B8014E
:102620000E941A13C8010E94D411870153CF10E0F1
:1026300000E050CFFB01DC0102C001900D9241503F
:102640005040D8F70895FB01DC018D91019080196D
:102650000110D9F3990B0895FB01DC0101900D9253
:102660000020E1F70895FB01DC014150504048F0A3
:1026700001900D920020C9F701C01D9241505040B9
:10268000E0F7089510E0C0E8D0E004C0FE010E9429
:0E26900032112196C138D107C9F7F894FFCF57
:10269E00C800C8000A003200FFFFFFFFFFFF000066
:1026AE00F104800000000000B80222024F02050370
:1026BE0080025E0272020D0A006E616E00696E6625
:1026CE00006F766600434D445F524356443A004DC8
:1026DE004F544F525F434D440046574400524556A7
:1026EE000053544F5000484F4D4500494E464F3A07
:1026FE00486F6D696E6720666F72206D6F746F72B2
:10270E002000206E6F742079657420696D706C6581
:10271E006D656E7465642E005345545F5350454588
:10272E0044002A005345545F4F55545055540047AA
:10273E0045545F43414C005345545F43414C004D5B
:10274E00535F5045525F4D4D005345545F43414CCE
:10275E003A4D535F5045525F4D4D3A004D535F50C9
:10276E0045525F444547005345545F43414C3A4DF3
:10277E00535F5045525F4445473A004552524F52BF
:10278E003A556E6B6E6F776E2063616C6962726123
:10279E0074696F6E206B6579004552524F523A53F1
:1027AE0045545F43414C20696E76616C69642066C6
:1027BE006F726D61740050494E5F54455354005012
:1027CE00494E5F544553543A4F4B004D4F56455F5B
:1027DE0054494D45004D4F56455F444953540049A9
:1027EE004E464F3A4D4F56455F4449535420666FFF
:1027FE0072206D6F746F72200020627920006D6DF3
:10280E00005455524E00494E464F3A5455524E20A2
:10281E00666F72206D6F746F722000206465677230
:10282E006565732E0043414C494252415445004D5B
:10283E004F544F525300494E464F3A53746172747F
:10284E00696E67206D6F746F722063616C6962725E
:10285E006174696F6E2E2E2E00494E464F3A4D6FA3
:10286E00746F722063616C6962726174696F6E203D
:10287E00636F6D706C6574652E0053454E534F52E9
:10288E005300494E464F3A5374617274696E672015
:10289E0073656E736F722063616C696272617469C5
:1028AE006F6E2E2E2E00494E464F3A506C65617358
:1028BE006520636F766572206C6967687420736536
:1028CE006E736F7273206E6F772E00494E464F3ABD
:1028DE00506C65617365206578706F7365206C69E7
:1028EE006768742073656E736F727320746F2062E5
:1028FE007269676874206C696768742E00494E4669
:10290E004F3A53656E736F722063616C69627261C8
:10291E0074696F6E20636F6D706C6574652E0054F4
:10292E005241434B5F53554E00494E464F3A5375F5
:10293E006E20747261636B696E6720636865636B8A
:10294E002E204C3A0020523A00544553545F4D4FBE
:10295E00544F5200494E464F3A54657374696E6730
:10296E00206D6F746F722000494E464F3A54657356
:10297E007420636F6D706C6574652E00496E7661A0
:10298E006C696420436F6D6D616E640053544154E5
:10299E0055533A41726475696E6F20526561647960
:1029AE002E2043414C3A4D535F5045525F4D4D3AA8
:1029BE000053454E534F525F53544154453A000015
:00000001FF
